:020000040800F2
:10000000F8550020E9020008E92900083B23000810
:100010007D2900089D060008D93D00080000000069
:10002000000000000000000000000000290200089D
:10003000DD0700080000000085020008DD37000829
:100040000303000803030008030300080303000878
:100050000303000803030008030300080303000868
:100060000303000803030008030300080303000858
:100070000303000803030008030300082107000826
:100080002D0700080303000803030008030300080A
:10009000A106000803030008030300080303000887
:1000A000030300089D380008030300080303000849
:1000B0000303000803030008030300080303000808
:1000C00003030008030300080303000803030008F8
:1000D0000303000803030008CD3D000803030008E4
:1000E00003030008030300080303000803030008D8
:1000F00003030008030300080303000803030008C8
:1001000003030008030300080303000803030008B7
:1001100079390008030300080303000803030008FB
:100120000303000803030008030300080303000897
:1001300003030008000000000000000003030008A3
:100140000303000803030008030300080303000877
:100150000303000803030008030300080303000867
:100160000303000803030008030300080303000857
:100170000303000803030008000000000000000063
:10018000030300080303000800F002F800F03CF845
:100190000AA090E8000C82448344AAF10107DA45E2
:1001A00001D100F031F8AFF2090EBAE80F0013F0F8
:1001B000010F18BFFB1A43F001031847F06100005C
:1001C00010620000103A24BF78C878C1FAD85207EC
:1001D00024BF30C830C144BF04680C6070470000C1
:1001E0000023002400250026103A28BF78C1FBD840
:1001F000520728BF30C148BF0B6070471FB505F0DC
:10020000EBFF1FBD10B510BD00F0E4F91146FFF77C
:10021000F5FF04F023F800F002FA03B4FFF7F2FF51
:1002200003BC00F005FA00002C4B19680868B0E820
:10023000F04F80F30988BFF36F8F4FF0000080F319
:10024000118870470000000008480068006880F3CB
:1002500008884FF0000080F3148862B661B6BFF3DF
:100260004F8FBFF36F8F00DF00BF00BF08ED00E0CE
:10027000DFF80C00016841F470010160704700BFB5
:1002800088ED00E0EFF30980BFF36F8F134B1A681E
:100290001EF0100F08BF20ED108A20E9F04F10600B
:1002A00009B44FF0500080F31188BFF34F8FBFF3B4
:1002B0006F8F05F071F84FF0000080F3118809BCD2
:1002C00019680868B0E8F04F1EF0100F08BFB0ECD6
:1002D000108A80F30988BFF36F8F70479800002061
:1002E000EFF3058070470000094880470948004740
:1002F000FEE7FEE7FEE7FEE7FEE7FEE7FEE7FEE7D6
:10030000FEE7FEE704480549054A064B7047000032
:100310008D38000889010008F84F0020F8550020AA
:10032000F8510020F851002053EA020C00F06980D7
:100330002DE9F04B4FF00006002B1FBFB3FA83F5F9
:1003400003FA05F424FA05F65E4012BF1643B2FA2A
:1003500082F502FA05F4C5F120051EBF22FA05FC5C
:1003600044EA0C04203556EA044C4FEA144418BF02
:10037000641C4FF000084FF00009904271EB030C31
:1003800039D3002919BFB1FA81F701FA07F6B0FA9B
:1003900080F700FA07F6C7F120071EBF20FA07FC16
:1003A00046EA0C062037B6FBF4FCA7EB0507103F26
:1003B00007F01F0BCBF120060CFA0BFB2CFA06F60C
:1003C00044BFB3460026202FA4BF5E464FF0000B6B
:1003D0005BEA060C08BF4FF0010B19EB0B09ABFBF6
:1003E000027C48EB0608C01B06FB02CC0BFB03CCCF
:1003F00071EB0C01C1E70B46024641464846BDE899
:10040000F08B13B54FF000004FF00001AFF3008008
:10041000BDE81C407047032A40F2308010F0030C06
:1004200000F0158011F8013BBCF1020F624498BF47
:1004300011F801CB00F8013B38BF11F8013BA2F1E4
:10044000040298BF00F801CB38BF00F8013B11F05F
:10045000030300F02580083AC0F0088051F8043BFF
:10046000083A51F804CBA0E80810F5E7121D5CBF6C
:1004700051F8043B40F8043BAFF30080D20724BF9F
:1004800011F8013B11F801CB48BF11F8012B24BF33
:1004900000F8013B00F801CB48BF00F8012B704782
:1004A00010B5203AC0F00B80B1E81850203AA0E80F
:1004B0001850B1E81850A0E81850BFF4F5AF5FEA43
:1004C000027C24BFB1E81850A0E8185044BF18C9F6
:1004D00018C0BDE810405FEA827C24BF51F8043B9D
:1004E00040F8043B08BF7047D20728BF31F8023BF1
:1004F00048BF11F8012B28BF20F8023B48BF00F885
:10050000012B704702F0FF0343EA032242EA024252
:1005100000F037B84FF0000200B5134694469646F7
:10052000203922BFA0E80C50A0E80C50B1F1200106
:10053000BFF4F7AF090728BFA0E80C5048BF0CC0B4
:100540005DF804EB890028BF40F8042B08BF704712
:1005500048BF20F8022B11F0804F18BF00F8012B84
:10056000704770477047704710B500F02BF800686F
:1005700010BD10B5044600F025F8046010BD4FF022
:1005800000020429C0F0128010F0030C3FF4C4AF45
:10059000CCF1040CBCF1020F18BF00F8012BA8BF6E
:1005A00020F8022BA1EB0C01FFF7B6BF5FEAC17C7C
:1005B00024BF00F8012B00F8012B48BF00F8012BE5
:1005C0007047000000487047944F00200048704773
:1005D000944F00207546FFF7F9FFAE4605006946C7
:1005E000534620F00700854618B020B5FFF78AFE75
:1005F000BDE820404FF000064FF000074FF0000824
:100600004FF0000B21F00701AC46ACE8C009ACE8A4
:10061000C009ACE8C009ACE8C0098D46704710B508
:100620000446AFF300802046BDE81040FFF7F5BD5B
:1006300001491820ABBEFEE726000200704700000B
:10064000C0EBC001144810B500EBC1004FF47A6351
:10065000B0F92C20B0F930105C42521A9A4202DDF7
:1006600001F57A6103E0A24202DAA1F57A6181859F
:10067000818D0186B0F92E20B0F93210521A9A42BB
:1006800002DD01F57A6103E0A24202DAA1F57A61A6
:10069000C185C18D418610BDA0030020FEE700008A
:1006A000014800F02CBA00001801002070B5054682
:1006B000C0EBC501174800EBC1042DED028B94ED92
:1006C000070AD4ED000A30EE600A03F00BFC84ED5B
:1006D000090A2079D0B19FED118A0F4800EB45102F
:1006E000F0EE480A02F09AF984ED0A0AD4ED020A03
:1006F000094830EE600A803000EB4510F0EE480A01
:1007000002F08CF9BDEEC00A10EE100AA085BDEC17
:10071000028B70BDA0030020C00400206F12833B39
:10072000014800F049BC0000D0010020014800F061
:1007300043BC00003002002001681823CAB2103AFE
:10074000B2FBF3F2054B6FF30901032A9B5CC3650F
:1007500000D9091D81650846704700003463000810
:1007600010B5014600208B698A6A4FF0C07453B1FE
:10077000B3F5005F15D072B1012A0CD0022A0AD05D
:10078000032A09D104E01AB1012A06D0022A03D1B2
:10079000C96AC90100D5012010BDC96AA142FAD0B9
:1007A00010BD002AF7D0012AF2D0022AF3D0032A82
:1007B000F3D010BD30B50468256825F48025256088
:1007C000046863608368402B036803D09960006805
:1007D000C26030BD9A600068C16030BD704772B6BB
:1007E000FEE790F82020012A07D0022A05D0416AAE
:1007F00041F48021416201207047006842690A4348
:10080000426100207047F0B590F820500468A46859
:10081000012D05D0022D03D0416A41F4802157E01B
:1008200014F0406F01D1E5004FD5C4F301640125F8
:10083000A5401D608D684FF4C0739DB1CE683543EF
:100840004E6845EAC605066803EB0417F5514FF4F8
:10085000C275076805EB04150E697E51097D0129F3
:1008600005D009E00E88CD6845EA4655EBE70168FA
:100870004E5946F480764E511179D579567941EA30
:10088000056195792D0445EA062529434FF4C6767E
:10089000056806EB0416A9511178D57841EA05617F
:1008A000957852782D0445EA022211434FF4C4751D
:1008B000026805EB04155151006803EB041142581E
:1008C00042F0010242500020F0BD416A41F40011A3
:1008D00041620120F0BD000010B590F82020012AEF
:1008E00007D0022A05D0416A41F4802141620120EB
:1008F00010BD3B48D0F8002242F00102C0F80022AF
:10090000D0F8002222F47C52C0F80022D0F8002255
:100910004B6A42EA0322C0F800220A7D02F01F035C
:1009200001229A40D0F81C329343C0F81C32CB69A4
:10093000B3B9D0F80C329343C0F80C328C894B68B1
:1009400064F31F434C6900EBC404C4F840320C89C3
:100950000B6864F31F434C6900EBC404C4F84432D1
:10096000CB69012B16D1D0F80C321343C0F80C32EE
:100970000C884B6864F31F434C6900EBC404C4F853
:1009800040320C89CB6864F31F434C6900EBC4040C
:10099000C4F844328B69002BD0F804320ED01343D4
:1009A000C0F804320B69002BD0F8143208D013437E
:1009B000C0F81432096A012904D008E09343EFE734
:1009C0009343F5E7D0F81C121143C0F81C12D0F87D
:1009D000001221F00101C0F80012002010BD00003B
:1009E00000640040704700000246002092F820306A
:1009F000012B01D0022B05D1106821B1D0F81000D5
:100A000000F003007047C068FAE770B590F8204026
:100A1000012C05D0022C03D0416A41F4802128E04A
:100A2000046809B32469A40720D04FF4D87405687A
:100A300004EB01142D5915F00405956005682D5936
:100A40001AD0ED08556005682C5904F00204D460F2
:100A50004FF4DA74056804EB01142E5906F00F0602
:100A6000082E0CD308250DE0E468DCE7416A41F468
:100A700000114162012070BD6D0D1560E3E72D5935
:100A800005F00F05156105682D59C5F3072595611A
:100A900005682C59240C54614FF4DC72046802EB95
:100AA0000112A4581C700468A458240A5C700468DD
:100AB000A458240C9C700468A258120EDA704FF4EB
:100AC000DE72046802EB0112A4581C710468A45879
:100AD000240A5C710468A458240C9C710468A25810
:100AE000120EDA71006829B1016941F0200101613B
:100AF000002070BDC16841F02001C160F8E72DE918
:100B0000F05F0546006800244669D0F804908768C5
:100B1000D0F80CB0D0F810A0D0F81880F10748D069
:100B2000F90714D001218160B80703D5284600F0E9
:100B3000E2F90CE0780702D54FF4006407E03807CB
:100B400002D54FF4805402E0284600F0D3F9F805AE
:100B500016D529684FF480708860B80503D52846FB
:100B600000F0CBF90CE0780502D544F4005407E01E
:100B7000380502D544F4804402E0284600F0BCF970
:100B8000F80316D529684FF480308860B80303D580
:100B9000284600F0B4F90CE0780302D544F4004490
:100BA00007E0380302D544F4803402E0284600F020
:100BB000A5F9300707D55FEACB6004D52968102076
:100BC00044F40074C86070074FF0080707D55FEA67
:100BD0000B7004D52868C760284600F059F9B007A3
:100BE00006D52868C068800702D0284600F051F971
:100BF000700607D55FEACA6004D52968102044F45E
:100C000080640861B00607D55FEA0A7004D52868D9
:100C10000761284600F03FF9F00606D5286800690C
:100C2000800702D0284600F037F9B00308D55FEA04
:100C3000C96005D5296810204860284600F02DF9C4
:100C4000F00307D55FEA097004D528684760284695
:100C500000F056F9300446D55FEA497040D5F005FA
:100C600004D55FEAC87001D044F00104B00504D592
:100C70005FEA887001D544F00204700504D55FEA8C
:100C8000487001D544F00404300529D518F0700FE0
:100C900026D008F07000402815D006DC102809D0B6
:100CA00020280AD0302816D10AE050280ED060281B
:100CB00011D10EE044F008040DE044F010040AE005
:100CC00044F0200407E044F0400404E044F08004D1
:100CD00001E044F480742868816921F07001816129
:100CE000296804204860002C05D0686A20436862A7
:100CF0002846FFF777FEBDE8F09F70B5040003D0EB
:100D000094F8200010B104E0012070BD204600F0EE
:100D100081F82068016841F00101016000F0C0FB2A
:100D20000546052604E000F0BBFB401B0A2811D84D
:100D300020684068C007F6D02068016821F00201F1
:100D4000016000F0ADFB05460BE000F0A9FB401B85
:100D50000A2806D9606A40F40030606284F8206096
:100D6000D2E7206840688007EFD4207E0128206801
:100D700001683DD021F080010160607E012820687B
:100D8000016838D021F040010160A07E0128206870
:100D9000016833D021F020010160E07E0128206845
:100DA00001682ED041F010010160207F01282068E9
:100DB000016829D021F008010160607F01282068C6
:100DC000016824D021F004010160D4E90201084344
:100DD000D4E90412114308436168491E084321689D
:100DE000C86100206062012084F82000002070BDEE
:100DF00041F08001C0E741F04001C5E741F020012A
:100E0000CAE721F01001CFE741F00801D4E741F033
:100E10000401D9E710B586B0044614216846FFF7EF
:100E200079FB18492068884229D1174800210268B7
:100E300042F000720260006800F0007005901248F5
:100E40001038026842F001020260006800F0010000
:100E500005904FF4C05000900220CDE9010103201D
:100E60000390092004906946084800F017FA002210
:100E70000521142000F0ACFB142000F09BFB06B011
:100E800010BD0000006400404038024000000240F5
:100E9000704701F067BB70477047704770B50446F4
:100EA00090F82000012804D0606A40F400206062BD
:100EB00018E0022084F820002068016821F0010178
:100EC000016000F0EDFA05460EE000BF00F0E8FA20
:100ED000401B0A2808D9606A40F40030606205208F
:100EE00084F82000012070BD20684068C007EDD163
:100EF000606270BD704770477047704770477047B9
:100F000070472DE9F0410446876D00F0C9FA0646A6
:100F100094F835000025022806D08020606584F80A
:100F200034500120BDE8F0812068016821F01601ED
:100F300001602068416921F080014161206C08B99D
:100F4000A06C20B12068016821F0080101602068D0
:100F5000016821F0010101600CE000F0A1FA801BA2
:100F6000052807D920206065032084F8350084F81F
:100F70003450D7E720680068C007EED194F85C10C1
:100F80003F208840B860012084F8350084F8345050
:100F90000020C7E790F83510022903D08021416571
:100FA00001207047052180F835100068016821F0A4
:100FB00001010160002070472DE9F84304464FF01D
:100FC0000009CDF8009063484FF41651A56D0068F4
:100FD000B0FBF1F72E6894F85C10082000FA01F1DC
:100FE00031420FD021680A6852070BD50A6822F0F7
:100FF00004020A6094F85C108840A860606D40F0BC
:101000000100606594F85C104FF0010808FA01F0E7
:10101000304208D021684969090604D5A860606D8E
:1010200040F00200606594F85C1004208840304273
:1010300008D021680968890704D5A860606D40F070
:101040000400606594F85C1010208840304218D08D
:1010500021680968090714D5A86020680168490358
:1010600004D50068000308D5A16C07E00168C90534
:1010700003D4016821F008010160216C09B1204608
:10108000884794F85C1020208840304231D0216895
:101090000968C9062DD5A86094F835000528206890
:1010A000016806D0490347D5006800031DD4616C70
:1010B0001CE021F0160101602068416921F08001E7
:1010C0004161206C08B9A06C20B12068016821F052
:1010D0000801016094F85C103F208840A86084F803
:1010E000358084F83490216D1FE0E16B09B1204612
:1010F0008847606D00282BD0606DC00714D0052094
:1011000084F835002068016821F001010160009831
:10111000401C0090B84203D820680068C007F6D190
:1011200084F8358084F83490E16C002910D001B047
:101130002046BDE8F04308470168C905D5D40168D9
:1011400021F01001016084F8358084F83490CCE7F8
:10115000BDE8F883940000202DE9F041044600F03A
:101160009FF906465CB1022084F83500002584F81A
:1011700034502068016821F0010101600DE0012078
:10118000BDE8F08100F08CF9801B052805D92020EE
:101190006065032084F83500F2E720680068C00726
:1011A000F0D12268116820480140D4E901031843B6
:1011B000D4E903363343184363691843A3691843DA
:1011C000E3691843236A18430843616A042903D179
:1011D000D4E90B1319430843106020684069666A1C
:1011E00020F0070130460E43012704280CD1A06AE5
:1011F0000643E06A40B12046FFF7B2FA20B1402032
:10120000606584F83570BAE7206846612046FFF7CC
:1012100093FA94F85C203F2191408160656584F8E1
:1012200035700020ACE700003F8010F02DE9F04160
:101230000446866D90F83400002501280DD0012069
:1012400084F8340094F835700020012F07D084F81A
:10125000340002252846BDE8F0810220FBE7022782
:1012600084F8357060652046FFF7A4FA94F85C10A6
:101270003F208840B0602068016841F0160101609D
:10128000206C20B12068016841F0080101602068ED
:10129000016841F001010160DCE700002DE9F84F31
:1012A000DFF8BCA10022012503264FF00F090AF147
:1012B000040BAAF1040E00BF0B6805FA02F42340E8
:1012C000A34270D10F7907F00307012F01D0022F3D
:1012D00016D187684FEA420806FA08FC27EA0C078D
:1012E000D1F80CC00CFA08FC4CEA070CC0F808C096
:1012F0004768A7430C79C4F3001494403C4344600E
:101300000C79E443A4070AD0C4684FEA420C06FAF9
:101310000CF7BC438F6807FA0CF72743C7600C79BA
:1013200004F00304022C12D1D40800EB840CDCF886
:1013300020405707FF0E09FA07F824EA0804D1F8FD
:10134000108008FA07F848EA0408CCF820800468FE
:101350004FEA420C06FA0CF7BC430F7907F003077B
:1013600007FA0CF7274307604C6814F4403F70D02D
:101370003C4C276847F480472760246822F0030725
:1013800004F480440094384C07EB040CDCF8084863
:1013900097074FEA177809FA08F7BC43334FB8426A
:1013A00002D1002724E054E0314FB84201D1012797
:1013B0001EE0304FB84201D1022719E02E4FB8424B
:1013C00001D1032714E02D4FB84201D104270FE0CB
:1013D0002B4FB84201D105270AE02A4FB84201D16C
:1013E000062705E0284FB84201D1072700E008276B
:1013F00007FA08F72743CCF80878DAF80040574690
:10140000D1F804C09C435FEACC2C00D51C433C605F
:10141000DBF800405F46D1F804C09C435FEA8C2CA7
:1014200000D51C433C60DEF800407746D1F804C08C
:101430009C435FEA8C3C00D51C433C60084F083F4E
:101440003C68D1F804C09C435FEACC3C00D51C4307
:101450003C60521C102AFFF42FAFBDE8F88F00004B
:10146000083C014044380240003001400000024086
:101470000004024000080240000C0240001002403C
:101480000014024000180240001C0240006908409D
:1014900000D0012070470AB1816170470904FBE761
:1014A0000148806870470000880000200248816879
:1014B0000278114481607047880000200B4810B505
:1014C000016841F400710160016841F480610160CC
:1014D000016841F480710160032000F099F80F2049
:1014E00000F006F800F04AF8002010BD003C024071
:1014F00030B505461C4887B00024016841F0010161
:101500000160006806A900F00100009001A800F049
:101510002BF900F059F915494000B0FBF1F11548DD
:10152000134A491E026040F2E732C0E90324C0E9D1
:101530000114846100F042FB040012D10D4800F058
:101540006BFB04000DD1192000F034F8102D07D2E8
:1015500000222946192000F03BF80748056000E00A
:10156000012407B0204630BD4438024040420F00FD
:1015700000000140900200208C0000200C4882B046
:10158000016841F480410160006800F480400090EF
:101590000748001F016841F0805101600068002287
:1015A00000F0805000900F21901E02B000F010B8A3
:1015B00044380240002809DB00F01F02012191405D
:1015C0004009800000F1E020C0F8001170470000E1
:1015D000F0B40E4B1B680C46C3F30223C3F107059E
:1015E000042D00D90425191D072901D2002300E08C
:1015F000DB1E012606FA05F1491E214099409E4056
:10160000761E16403143F0BC02F099BC0CED00E0B0
:10161000064900F0070208684FF6FF03184040EA49
:101620000220034A10430860704700000CED00E000
:101630000000FA052DE9F0470E46050065D0DFF8F9
:101640001481D8F80000F7B200F00700B04207D2CA
:1016500088F80070D8F8000000F00700B04254D1BC
:1016600028683D4C810712D5400703D5206840F417
:10167000E05020602878000703D5206840F46040DF
:1016800020602068A96820F0F000084320602878D6
:10169000C0072DD0304968680839012812D00228C7
:1016A00013D0032811D00968890700292DDA216891
:1016B00021F0030101432160FFF7F2FE814641F270
:1016C000883A0EE009688903EFE709688901ECE7C9
:1016D000FFF7E6FEA0EB0901514502D90320BDE862
:1016E000F0872068696800F00C00B0EB810FEFD143
:1016F000D8F80010404601F00701B14207D9077041
:10170000006800F00700B04201D00120E7E7287828
:10171000400705D52068E96820F4E05008432060C0
:101720002878000706D52068296920F4604040EA3F
:10173000C100206000F058F82168084AC1F3031185
:10174000515CC8400649086006480068FFF7D0FEB3
:101750000020C4E7003C0240083802403C63000817
:10176000940000208C0000200F2202600C4A1368B5
:1017700003F003034360136803F0F003836013680E
:1017800003F4E053C36012684FF4E05303EAD2025B
:1017900002610448006800F007000860704700001C
:1017A00008380240003C02400448054900680968C6
:1017B000044AC1F38221515CC84070479400002064
:1017C000083802404C63000804480549006809686D
:1017D000044AC1F34231515CC84070479400002074
:1017E000083802404C630008154810B5006810F036
:1017F0000C02144813D01449042A0FD0082A0ED121
:101800000F4C241F2268236802F03F025B0207D5B9
:101810002068C0F38810A0FB010106E0084610BD57
:101820002168C1F38811A1FB00010023FEF77CFDB4
:101830002168C1F30141491C4900B0FBF1F010BD22
:10184000083802400024F40040787D012DE9F84F6B
:1018500004006ED02078DFF84C93C007A9F104058E
:101860004AD009F104000168C1F38101012908D0BF
:101870000068C0F3810002280AD1D9F800004002B4
:1018800006D52868800337D560680028E1D033E0AA
:101890006068B0F5803F10D0B0F5A02F286810D058
:1018A00020F480302860286820F480202860606858
:1018B000A8B1FFF7F5FD06460DE0286840F480303A
:1018C000F4E740F480202860F7E700BFFFF7E8FD69
:1018D000801B642873D828688003F7D50CE0FFF7D5
:1018E000DFFD064605E000BFFFF7DAFD801B642838
:1018F000F0D828688003F7D42078DFF8AC8280071E
:101900004FF0000A3ED5A748001D016811F00C0FEA
:1019100008D00068C0F3810002280BD1D9F800007C
:10192000400207D42868800716D5E068012800D156
:1019300012E033E1E068B8B10120C8F80000FFF719
:10194000AFFD064605E000BFFFF7AAFD801B022899
:10195000C0D828688007F7D52868216920F0F800EA
:1019600040EAC10028600DE0C8F800A0FFF798FD2C
:10197000064604E0FFF794FD801B02281FD8286864
:101980008007F7D42078000722D5864F8748616901
:10199000703771B101210160FFF782FD064604E056
:1019A000FFF77EFD801B022809D838688007F7D52D
:1019B0000EE0C0F800A0FFF773FD064605E082E0E8
:1019C000FFF76EFD801B02287DD838688007F7D4AA
:1019D0002078400768D5DFF8CCB100270BF13C0B2D
:1019E000DBF80000C0000BD4DBF8001041F08051A0
:1019F000CBF80010DBF80000012700F080500090C9
:101A00006B4E3068C00510D4306840F48070306090
:101A1000FFF746FD009005E0FFF742FD0099401AF0
:101A2000022850D83068C005F6D55E4EA0686C36E6
:101A300001280FD00528306810D020F00100306058
:101A4000306820F004003060A068B8B1FFF728FDCE
:101A500000900FE0306840F00100F4E740F004002F
:101A60003060F7E7FFF71CFD0099411A41F288301A
:101A7000814266D830688007F4D50EE0FFF710FD8C
:101A8000009007E0FFF70CFD0099411A41F2883001
:101A9000814256D830688007F4D42FB1DBF80010AB
:101AA00021F08051CBF80010A069C8B33D49091D51
:101AB0000968C1F3810102294AD00228504607D0A3
:101AC000C8F8600000E03CE0FFF7EAFC04463BE0B9
:101AD0004746C8F86000FFF7E3FC064605E000BF94
:101AE000FFF7DEFC801B02282BD828688001F7D482
:101AF000D4E907010843A16A2E4A490802EB0141D3
:101B0000626A41EA8211084394F82C1040EA0161AC
:101B1000C9F8001001203866FFF7C2FC044606E051
:101B20003EE000BFFFF7BCFC001B022809D8286874
:101B30008001F7D534E000BFFFF7B2FC001B02289C
:101B400002D90320BDE8F88F28688001F4D427E08B
:101B50000128F7D0D9F80000E26900F48001914231
:101B60001CD1226A00F03F01914217D147F6C071A3
:101B7000626A0140B1EB821F10D1A26A4FF0FF33BD
:101B800000F4403103EB5202B1EB024F06D194F85E
:101B90002C1000F07060B0EB016F01D00120D1E794
:101BA0000020CFE70438024000004742800E474241
:101BB000007000400000FFFF7047704710B5040040
:101BC00003D094F83D0010B107E0012010BD0020C3
:101BD00084F83C00204600F01EF8022084F83D0006
:101BE000211D206801F060FE012084F8460084F881
:101BF0003E0084F83F0084F8400084F8410084F8F7
:101C0000420084F8430084F8440084F8450084F8D6
:101C10003D00002010BD704790F83D10012901D013
:101C200001207047022180F83D100168CA6842F027
:101C30000102CA6000681149884214D0B0F1804F97
:101C400011D00F4988420ED00E4988420BD00E4960
:101C5000884208D00D49884205D00D49884202D0FB
:101C60000C49884204D1816801F00701062903D09C
:101C7000016841F00101016000207047000001404F
:101C80000004004000080040000C00400004014037
:101C9000004001400018004070472DE9F041044623
:101CA0000068C66805694FF00007A90713D5B1079A
:101CB00011D5F91E01610120207720688069800715
:101CC000204602D0FFF7E8FF04E000F07EF820464F
:101CD00000F07CF82777680716D5700714D52168BF
:101CE0006FF004000861022020772068806910F4FA
:101CF000407F204602D0FFF7CFFF04E000F065F8F8
:101D0000204600F063F82777280715D5300713D54C
:101D100021686FF008000861042020772068C069FE
:101D20008007204602D0FFF7B7FF04E000F04DF82F
:101D3000204600F04BF82777E80616D5F00614D5B4
:101D400021686FF010000861082020772068C069C2
:101D500010F4407F204602D0FFF79EFF04E000F021
:101D600034F8204600F032F82777E80708D0F0076B
:101D700006D021686FF001000861204600F028F8C5
:101D8000280608D5300606D521686FF08000086166
:101D90002046FFF711FF680608D5700606D52168B2
:101DA0006FF040000861204600F01CF8A8060AD534
:101DB000B00608D521686FF0200008612046BDE814
:101DC000F041FFF7FABEBDE8F081704770470000B0
:101DD00000680349884201D1FFF768BB70470000E3
:101DE00000000140704738B5044690F842002028B2
:101DF00001D0022038BD51B14AB10120206300203A
:101E00006063204601F058FF216B012901D00120B9
:101E100038BD21680A684968009121680C3151E891
:101E2000002F42F0100241E80023002BF5D138BD0D
:101E300008B50D4A0168914215D100F0D5FF002088
:101E400000900A486946006803F04DFD00280AD05A
:101E50000098002807D006494FF080500860BFF373
:101E60004F8FBFF36F8F08BD004400401400002067
:101E700004ED00E070470000F8B50168044608680A
:101E8000CA684B6910F00F0F4FF0000559D003F0EE
:101E9000010602F49077374365D0C10705D0D1051C
:101EA00003D5616C41F001016164410705D5D90793
:101EB00003D0616C41F002016164810705D5D90747
:101EC00003D0616C41F004016164010707D502F0A1
:101ED0002001314303D0616C41F008016164616C01
:101EE00000293AD0800604D5900602D5204601F09C
:101EF000FCFD20684069616CC0F38010090700D4C4
:101F000060B3204601F0BCFD20684069400621D541
:101F10002068143050E8001F21F0400140E8001212
:101F2000002AF5D1E06BA8B172490165E06BFFF7BB
:101F300031F8002811D0E06B016D01B0BDE8F04030
:101F4000084783060FD593060DD52046BDE8F84017
:101F500001F0CBBD2046FFF78DFFF8BD2046FFF70F
:101F600089FF6564F8BD266B2023012E7ED1C6064D
:101F70007CD5D6067AD508684868009048694FF045
:101F8000020640064DD5E26B106840684FF480773A
:101F90000004000C3AD0A18D814237D9E085D06988
:101FA000B8422DD020680C3050E8001F21F4807119
:101FB00040E80012002AF5D12068143050E8001FD4
:101FC00021F0010140E80012002AF5D12068143008
:101FD00050E8001F21F0400140E80012002AF5D12E
:101FE00084F84230256320680C3050E8001F21F04F
:101FF000100140E80012002AF5D1E06BFEF781FFE6
:102000006663A08DE18D401A81B206E0A18D814208
:10201000A8D1D069B842A5D166632046FFF708FF72
:10202000F8BDA08DE18D401A81B2E08D0028F7D077
:102030000029F5D020680C3050E8002F22F490726F
:1020400040E80027002FF5D12068143050E8002F19
:1020500022F0010240E80027002FF5D184F8423039
:10206000256320680C3050E8002F00E006E022F0E5
:10207000100240E80023002BF3D1CDE705062BD555
:10208000150629D594F841002128C9D1A068B0F5DA
:10209000805F01D12069B0B1206A411C21622168B2
:1020A00000784860E08C401E0004000CE084B7D14A
:1020B0002068C16821F08001C1602068C16841F0DA
:1020C0004001C160F8BD206A0088C0F30800486084
:1020D000206A801C2062E5E74006F3D55006F1D562
:1020E000CA68204622F04002CA6084F8413000F0FD
:1020F00023F9F8BD8539000870B5040004D094F8C0
:102100004100002510B106E0012070BD84F8405068
:10211000204600F023F8242084F841002068C1689C
:1021200021F40051C160204601F040FD20680169A2
:1021300021F4904101612068416921F02A01416147
:102140002068C16841F40051C1606564202084F8B2
:10215000410084F842006563002070BD2DE9F04322
:1021600087B0064614216846FEF7D4F94349434830
:10217000DFF804C1356800241038022203234F051C
:102180004FF480684FF48079654535D10D6845F48A
:1021900000250D60096801F400210591016841F0F6
:1021A000040101600068694600F00400059098028F
:1021B0008DE815000820CDE903303148FFF76EF8AF
:1021C000314D3048E5E802074020A5E811012E48CE
:1021D00045F81449C5E906492C626C62FEF7BCFF5C
:1021E00008B1FEF7FCFAB563002205213420AE6386
:1021F000FFF7EEF9342039E0DFF890C0654537D1BC
:102200000D6845F400350D60096801F40031059151
:10221000016841F0010101600068694600F00100B9
:1022200005900C208DE815000720CDE903301848F3
:10223000FFF734F8144D1348603518302860C5E9AD
:102240000174C5E903486C61C5E906492C6228465A
:102250006C62FEF781FF08B1FEF7C1FAF563002258
:1022600005212620AE63FFF7B3F92620FFF7A2F978
:1022700007B0BDE8F0830000004C00404038024049
:102280000008024070600240D0010020004400407D
:1022900000000240704770472DE9F843044690F86B
:1022A0004100984616460D46202802D00220BDE87F
:1022B000F88385B17EB100206064212084F841005C
:1022C000FFF7EEF8A6848146E684A0682027B0F5E3
:1022D000805F02D003E00120E9E7206910B12E46BB
:1022E00000250EE000260CE08021204601F034FDA0
:1022F000A8B9C6B116F8010B21684860E08C401EF1
:10230000E084E08C4B464FF00002CDF800800028BE
:10231000EAD14FF04001204601F01EFD40B184F8A3
:1023200041700320C3E735F8020BC0F30800E3E770
:1023300084F841700020BAE77047FEE72DE9F04FBE
:102340002DED088B93B09FED500A8DED020A8DEDB7
:10235000030ADFED4E0A4E49CDED040ACDED050A24
:102360008DED060ACDED070A8DED080ACDED090ABF
:102370000FC90AAC002584E80F00464802AF0DF1F2
:102380001808D0ED019A90ED029AD0ED038AA1468B
:102390009FED41BADFF804A1414EAB46DFED41AA03
:1023A00008EB8500F0EE690A90ED000A07EB850066
:1023B000B0EE498A48EEC00A90ED000A08EE808A25
:1023C000B0EE60AA2AEE0A0A08EE080A01F01EFF23
:1023D00009EB850060EE0B0A90ED001AC5EBC50015
:1023E00006EBC00460EE810A10EE100AC4ED080A84
:1023F000504508DA207918B194ED000A84ED070AF7
:1024000084F835B030E0F0EE4A0AB0EE480A01F048
:10241000A7FDDFED250A20EE200A00F0E7FA84EDA3
:10242000070A207900B3D4ED000A30EE600A01F00B
:1024300059FD94F83500B0EEC00A002810EE100ADD
:102440001BD01A4988420FDA84F835B094ED080A97
:10245000B1EE400A84ED080A94ED070A30EE2A0A2C
:1024600000F0C4FA84ED070A6D1CEDB2042D97D379
:1024700013B0BDEC088BBDE8F08F0D498842F3DD49
:10248000012084F83500E1E79A99193E9A9919BE1E
:1024900024630008780000201B4CFB426F12833A33
:1024A000A003002000003443E12E65420000AA4250
:1024B0000000BE42421E082A0DD261B1074A02EB5B
:1024C000C00002680A6042684A60817919B100213F
:1024D00081710120704700207047000056030020E2
:1024E000F0B58BB0060030D01C4D1D4B002103F120
:1024F00012000C46C5F8046023F8114020F8314062
:1025000000EBC102491C54809480C9B2947108291F
:10251000F2D90127CDE9064744F220000594CDE920
:10252000000440F2FF1002904FF6F870CDE903046A
:102530000E20CDE9087069463046FEF7CDF918B98E
:102540003046FEF7ABFC10B12C700BB0F0BD022191
:102550003046FEF746F92F70F7E700006C000020C8
:102560004403002010B58AB004002DD026E06B464D
:1025700002AA00212046FEF748FA002824D1049838
:10258000E0B90598D0B90298A0F20121082915D226
:10259000C1B2481E082811D2BDF8000042BA0B484B
:1025A00020F83120BDF8022000EBC10152BA4A8068
:1025B000BDF8040040BA88800120887100212046BF
:1025C000FEF712FA0028D2D10AB010BD560300203F
:1025D00030B5294D89B0287800284AD0686800288D
:1025E00047D0002108220491CDE905128DF81C1076
:1025F000224C91010291618808AB0A0A8DF80020F3
:102600008DF80110A1880A0A8DF802208DF80310B8
:10261000E1880A0A8DF804208DF8051021890A0A3C
:102620008DF806208DF807106A4602A9FEF7EBF830
:1026300040F2FF100290608908AB010A8DF800108B
:102640008DF80100A0896A46010A8DF802108DF804
:102650000300E089010A8DF804108DF80500208A36
:10266000010A8DF806108DF8070002A96868FEF7C8
:10267000CAF809B030BD00006C00002044030020FF
:10268000421E082A0AD24FF48042914202DC524292
:10269000914200DA1146024A22F8101070470000F9
:1026A0004403002000280AD0002908D0016000213E
:1026B00081809FED030A012180ED020A01737047BA
:1026C000000000001CB504001CD02068D0B102211D
:1026D000009101AB0322062100F0BAFC2073002810
:1026E0000FD1BDF80410DFED080A49BAC1F30D019E
:1026F00000EE101AA180B8EE400A20EE200A84ED08
:10270000020A1CBD01201CBD0000B43C0F4810B5DE
:102710000D4901600321416000214FF400228160D6
:10272000C0E903124FF4401242610176417681768E
:10273000C17601774177FEF7E0FA002803D0BDE8C3
:102740001040FEF74CB810BD006400401801002096
:102750000D4808B5016841F40011016000680022CD
:1027600000F40010009005210F20FEF731FF0F202C
:10277000FEF720FF002205211020FEF729FFBDE80B
:1027800008401020FEF716BF3038024010B500F0A8
:1027900015F9164A0021012001F070FE144C134A6D
:1027A0000C216061183A102001F0DAFD206100F080
:1027B00005FB0E4A0021A83A0E4801F0ABFE0B4A79
:1027C0002060843A00210C4801F0A4FE074A6060B2
:1027D000603A0021094801F09DFE044AA0603C3A9D
:1027E0000021074801F096FEE06010BD8C620008F1
:1027F0000000002089320008152D000881290008FA
:10280000DD3D00082DE9F04F87B014216846FDF743
:1028100081FE37480024016841F0800101600168B1
:1028200001F080010591016841F00101016001683A
:1028300001F001010591016841F0020101600168A8
:1028400001F002010591016841F004010160016895
:1028500001F004010591016841F008010160006880
:10286000DFF8909000F008004FF4406505900022DA
:1028700029464846FEF70FFEDFF87CA04FF4865746
:10288000002239465046FEF706FEDFF870B04FF4DE
:10289000C068002241465846FEF7FDFD0022042193
:1028A0001748FEF7F8FD01260095CDE902641125D1
:1028B000694648460195FEF7F1FCCDE90264CDE991
:1028C000007569465046FEF7E9FCCDE90264CDE9A2
:1028D000008569465846FEF7E1FC042003948DE824
:1028E000610069460648FEF7D9FC07B0BDE8F08FE5
:1028F000303802400004024000080240000002405C
:10290000000C02400C4810B50A4901604FF4E13157
:102910004160002181600C22C160C0E90412816124
:10292000C161FFF7E9FB002803D0BDE81040FDF7C7
:1029300056BF10BD004C0040400100200D4810B5AE
:102940000B4901600C49416000214FF480628160B5
:10295000C0E903120C22C0E90521C161FFF7CCFBDD
:10296000002803D0BDE81040FDF739BF10BD0000BE
:102970000044004088010020A0860100FEE700001E
:102980001FB500F01BF803F043FA0B4C039003E073
:102990009DEC030A00F01CFF00231A4669462068DC
:1029A00001F0ACFC0028F3D000F072FC042103A875
:1029B00002F0D6FBF0E70000100000201FB507482A
:1029C0000178002909D1064B012101700FCB8DE858
:1029D0000F000449684600F09DFD1FBD74000020F3
:1029E0009C62000818010020FEE70000DFED090AE4
:1029F000094901E030EE600A10EE100A8842F9DA67
:102A000002E000BF30EE200AB5EEC00AF1EE10FA87
:102A1000F8D370470000B4430000B44390ED072A98
:102A2000F0EEC01A9FED271AF4EEC21AF1EE10FA7A
:102A300001D2B0EE410AD0ED001A61EE802AD0ED4D
:102A4000031A40EE201AC0ED031A90ED052AF4EEA9
:102A5000C21AF1EE10FA06DCB1EE422AF4EEC21A06
:102A6000F1EE10FA01D280ED032AD0ED011A90EDBB
:102A7000032A10EE901A144A61EE821A914209DD7F
:102A800090ED042A90ED021A30EE422A21EE022A3D
:102A900082EE201A80ED040A32EEA10AD0ED060A79
:102AA00030EE010AF4EEC00AF1EE10FA06D3F1EEB0
:102AB000600AF4EEC00AF1EE10FA01DDB0EE600A31
:102AC000704700000000000017B7D13880EC030AFF
:102AD0009FED040A80ED030A80ED040A1430C0EC77
:102AE000031A704700000000002805D09FED030A7C
:102AF00080ED030A80ED040A70470000000000002A
:102B00002DE9F0470178A02902D00020BDE8F08728
:102B100030F8011F0C234288C1F30A01C2F30A0AEC
:102B20008288C2F30A09C288C2F30A080289C2F382
:102B30000A06827A02F00304C27A007B03EA1213C7
:102B400002F03F05702202EA500005431C4308468C
:102B500000F024F8104F504687ED000A00F01EF8F0
:102B600087ED010A484600F019F887ED020A404651
:102B700000F014F887ED030A304600F00FF887EDF7
:102B8000040A204600F044F83875284600F040F862
:102B900078750120B875B9E72C030020174AB0F505
:102BA000B67F02D8BFEE000A704740F29463144922
:102BB000984202D3B7EE000A7047B0F5806F08D292
:102BC000C0F5806000EE100A9FED0E1AF8EEC00A04
:102BD00007E0A0F5806000EE100A9FED0B1AF8EEFA
:102BE000C00A80EE810A10EE100A9042E4D210EE84
:102BF000100A8842E0DA9FED050A7047CDCC4CBD43
:102C0000CDCC4C3D000025C4000025440000000050
:102C100018B1012800D00020704702207047000042
:102C20002DE9F0470025DFF87C902C46A846A9F155
:102C3000E00700BF09EB04100646FFF743FDC8B1EB
:102C4000C4EBC40007EBC00080F8048090F8341097
:102C5000491CC9B280F834100A2901D96D1CEDB2A3
:102C6000641CE4B2042CE5D3002D19D0BDE8F04774
:102C700000F0EABB0C4896ED020A00EB8400D0EDB0
:102C8000000A30EE600AFFF7B1FEC4EBC40007EBA8
:102C9000C000012180ED000A017180F83480DFE777
:102CA000BDE8F08780040020B46200087CB5184DB0
:102CB0000024661CF0B26946FFF7FCFB70B1BDF959
:102CC000020000EE100AC4EBC40005EBC000B8EE31
:102CD000C00A80ED040ABDF804108182601DC0B2F4
:102CE0006946FFF7E7FB70B1BDF9020000EE100A7C
:102CF000C4EBC40005EBC000B8EEC00A80ED020AC8
:102D0000BDF804108181F4B2042CD2D37CBD000044
:102D1000A0030020264E274D8AB00A21306801F01A
:102D20007FFB0446684600F04FF800F0DFF830B152
:102D3000012832D00228F0D100F086FBEDE700F048
:102D4000BBFB03280AD14CB99DF816000028E4D03B
:102D50009DF81400022807D100F030FD9DF8160000
:102D60000028DAD0002CD8D19DED010AF0EE080A37
:102D70009DED001A20EE200ADFED0F1A61EE200A09
:102D80009DED031A06A9002321EE211A1A4681ECB3
:102D9000030A286801F010FBBFE7002006900790A7
:102DA00003460246089006A9286801F005FBC3E720
:102DB0001400002010000020560EC940014800F009
:102DC0005BB800008801002010B5002809D0EFF39F
:102DD000108472B618220349FDF762FB002C00D163
:102DE00062B610BD2C03002070B5214C054660680A
:102DF000854228D1002826D0FEF752FB0646E86B14
:102E00000068406880B2C0F1400080B212281AD336
:102E10000021184A123804E0535CA02B14D0491C3E
:102E200089B28142F8DDE86B0068016821F0010198
:102E30000160E96B402009684860E86B0068016840
:102E400041F00101016070BD0A4811441222403076
:102E5000FDF7E1FA07484030FFF752FE0028E2D0C4
:102E6000A66020780028DED000202070E060DAE73D
:102E700018000020D802002070B5104C05464021F3
:102E800060600F48FDF746FB0D4812214030FDF70A
:102E900041FB0B4818215430FDF73CFB002020700B
:102EA000A060E060402206492846FEF79CFF2868A3
:102EB000C16841F01001C16070BD00001800002021
:102EC000D802002010B5FEF7EBFA0749896888425E
:102ED00001D3401A02E0C9430844401C322801D201
:102EE000012010BD002010BD1800002010B5FEF715
:102EF000D7FA0446FFF7E6FFB0B90C49087810B1DD
:102F0000012811D103E001200870CC6010BDC86811
:102F1000844201D3201A02E0C0432044401CC82848
:102F200002D30220087010BD002010BD1800002040
:102F30002DE9F0410C4E0024C4EBC40006EBC005A3
:102F4000671CB5F92E10F8B2FFF79AFB641DB5F9AE
:102F50002C10E0B2FFF794FBFCB2042CECD3BDE8DC
:102F6000F041FFF735BB0000A0030020114B10B566
:102F70001A78114992B9114A1468E40103D414680B
:102F800044F08074146000224A600A68D20703D1BA
:102F90000A6842F001020A6001221A704B68084A6E
:102FA000084C1268B2FBF4F242434868C01A9042DF
:102FB000FBD310BD68000020001000E0FCED00E035
:102FC0009400002040420F0010B5040012D00120F0
:102FD000FFF7CCFFA07B08B90520A073A1880122D0
:102FE0002068FEF758FAA189A068BDE810400122C8
:102FF000FEF751BA10BD70B50446818800250068FF
:103000000122FEF748FAA07BFFF7B0FF0026680612
:10301000050EA1890122A068FEF73DFAA07BFFF70B
:10302000A5FFA1882068FEF731FA012801D145F0FB
:103030000105A1890022A068FEF72DFAA07BFFF709
:1030400095FF761CF6B2082EE1D3284670BD00002D
:103050002DE9F0411E00069D17460C4680460CD017
:103060005DB100F07CF86006010E404600F0E5F826
:10307000404600F0B4F8C8B902E00120BDE8F08194
:103080003946404600F0D9F8404600F0A8F868B943
:10309000404600F064F8012000EB4400C1B2404615
:1030A00000F0CBF8404600F09AF818B1404600F026
:1030B0007AF8E2E700246F1E0DE000BFFFF79BFFE8
:1030C0003055BC42404602D100F02DF801E000F03E
:1030D00009F8641CE4B2AC424046EFD300F063F858
:1030E0000020CBE710B50446818800680022FEF777
:1030F000D2F9A07BFFF73AFFA1890122A068FEF771
:10310000CAF9A07BFFF732FFA1890022A068FEF771
:10311000C2F9A07BFFF72AFFA1882068BDE8104014
:103120000122FEF7B8B910B5044681880068012273
:10313000FEF7B1F9A07BFFF719FFA1890122A06872
:10314000FEF7A9F9A07BFFF711FFA1890022A06873
:10315000FEF7A1F9A07BBDE81040FFF707BF10B54F
:103160000446818800680122FEF795F9A07BFFF7ED
:10317000FDFEA1890122A068FEF78DF9A07BFFF773
:10318000F5FEA18800222068FEF785F9A07BFFF7F5
:10319000EDFEA1890022A068FEF77DF9A07BBDE8C5
:1031A0001040FFF7E3BE10B5044681880068002296
:1031B000FEF771F9A07BFFF7D9FEA1890122A06873
:1031C000FEF769F9A07BFFF7D1FEA18801222068F4
:1031D000FEF761F9A07BBDE81040FFF7C7BE2DE9FF
:1031E000F04104468188002500680122FEF753F96A
:1031F000A07BFFF7BBFEA1890122A068FEF74BF977
:10320000A07BFFF7B3FE4FF47A77A1882068FEF722
:103210003DF96D1C0646012801D1BD42F5D3A189B7
:103220000022A068FEF737F9A07BFFF79FFE16B1DA
:103230000120BDE8F0810020FBE770B50E46044692
:1032400000253006A188206801D5012200E0002277
:10325000FEF721F9A07BFFF789FEA1890122A06872
:10326000FEF719F9A07BFFF781FEA1890022A06873
:10327000FEF711F9A07BFFF779FE70066D1C060EB4
:10328000EDB2082DDDD370BD012000F0FCFFFBE79F
:103290002DE9F05F2DED028BFFF7C2FCFFF706FD75
:1032A000634E644D002031789FED638AF1B30229AB
:1032B00030D0032944D0FFF741F8002405F5087702
:1032C0002046FDF7F3F9C4EBC40005EBC00607EB9D
:1032D000441096ED080AD6ED040A30EE600AF0EECE
:1032E000480AFFF79BFBBDEEC00A641CE4B210EE77
:1032F000100A042CF085E3D300242046FDF7A0F942
:10330000641CE4B2042CF8D3BDEC028BBDE8F05F82
:10331000FFF70EBE5FF00001C1EBC10205EBC20278
:10332000491C9085C9B2D085042900E015E0F3D38B
:10333000FFF7FEFD00F024FA002872D003206FE0B2
:103340005FF00001C1EBC10205EBC202491C908590
:10335000C9B2D0850429F5D3D6E7DFF8E0A001276C
:1033600000248046AAF5807BA946C4EBC40209EB81
:10337000C2054046A5F82E802979D9B395ED060AF5
:10338000D5ED000A30EE600A00F0ACFDF0EEC00AA8
:1033900010EE900A2A49884200DD00270AEB44100B
:1033A000F0EE480AFFF73AFBD5ED020A0BEB4410AA
:1033B00030EE600AF0EE480AFFF730FBBDEEC00ABF
:1033C00010EE100AA885641CE4B2042CCDD30024AE
:1033D0002046FDF735F9641CE4B2042CF8D3FFF75E
:1033E000A7FD002F1DD0174D002152465B4605F565
:1033F000807400E019E005EB4110FFF775FB03EB6B
:103400004110FFF771FB04EB4110FFF76DFB02EB7E
:103410004110FFF769FB491CC9B20429E9D3012017
:103420003070BDEC028BBDE8F09FA8850027CAE78D
:1034300078000020A00300206F12833B400600208C
:1034400000004040C0040020F0B5184B0220184C8A
:1034500018700020024600BFC0EBC00104EBC101A0
:10346000401C8A85CA850A86C0B24A860428F3D3DE
:10347000104C002104F1800504F5807604F5C07736
:1034800004EB4110FFF730FB05EB4110FFF72CFB7D
:1034900006EB4110FFF728FB07EB4110FFF724FB79
:1034A000491CC9B20429EBD35A70F0BD7800002042
:1034B000A0030020C00400200148007870470000ED
:1034C00078000020F0B5124E002400BFC4EBC40504
:1034D00006EBC50500EB840795ED000A87ED000AB1
:1034E00095ED070A01EB840787ED000A95ED040AC4
:1034F00002EB840787ED000A95ED080A03EB8405CB
:10350000641CE4B285ED000A042CDFD3F0BD00009A
:10351000A00300202DE9F04F0E462DED068BA9B03B
:103520000546002455F82400FFF74EFD641CE4B264
:10353000042CF7D3864F002407EB041055F8241011
:10354000FFF7B0F8641CE4B2042CF5D33046FEF764
:10355000C7FF00247E4E2746E03E9FED7E8A00BFD7
:10356000C4EBC40006EBC00538212846FCF7D2FFA7
:1035700085ED078A641C85ED088AE4B285F835700C
:10358000042CEDD3744D00240DF19809D5E9000108
:10359000DFED728A9FED729A05F10808CDE92601E8
:1035A00039F8140000EE100A08EB8400B8EE400A67
:1035B000D0ED000A20EE280A20EE090A30EE600A5B
:1035C000FFF714FAC4EBC40006EBC000641CE4B2BD
:1035D00080ED060A042CE3D3183501AC0FCD84E846
:1035E0000F000FCD05AC0EAE84E80F0009970A97C7
:1035F0000B970C971ECD86E81E001ECDCDE9154712
:1036000012AC17971897199784E80E001ECD1AAEC2
:10361000384686E81E0095E81E00CDE92140B846F0
:103620002390249000240DF138090DF1480A0DF182
:10363000580B9FED4CAA9FED4C9ADFED4C9A2590CC
:103640001EA801AF80E80E0005AE09AD05EB8400B1
:10365000F7EE002A90ED001A06EB8400B0EE4A2A3D
:10366000D0ED000A07EB840090ED000A38484030A6
:1036700000EB4410DFED3E8AF0EE681AFFF726FA01
:103680000BEB8400F0EE482A90ED001A0AEB840060
:10369000B0EE492AD0ED000A09EB8400F0EE691A79
:1036A00090ED000A2A48C03000EB4410FFF70EFAF4
:1036B00022A800EB8400F0EE482A90ED001A1EA824
:1036C00000EB8400B0EE492AD0ED000A1AA800EB06
:1036D0008400F0EE691A90ED000A264800EB4410D1
:1036E000FFF7F4F9641CE4B2042CAFD3B0EE689A8F
:1036F000DFF88090DFED208A0024B6EE008A09F121
:10370000800900BF05EB8400F0EE082A90ED001A56
:1037100006EB8400B0EE492A90ED000A07EB840026
:10372000F0EE681A60EE080A90ED000A09EB44100A
:1037300020EE080AFFF7CAF9641CE4B2042CE1D3B6
:103740000E4981F8008029B0BDEC068BBDE8F08FF2
:103750008004002000000000AC62000800008038F7
:103760000000B44300007A440000804600409C45BD
:103770000000FA43C005002000007A4378000020D2
:103780000C490D4A002000BFC0EBC00302EBC3038D
:103790001B795BB1401CC0B20428F5D34878401CAB
:1037A000C0B24870052803D301207047002048703C
:1037B0000020704778000020A00300200348017813
:1037C000032902D100214170017070477800002068
:1037D000014880EC030A70477C00002010B54FF0D0
:1037E000E020006902F006FB012803D0BDE810408C
:1037F00001F07EBE10BD000030B593B030216846A8
:10380000FCF788FE14210CA8FCF784FE1D48002557
:10381000016841F080510160006800F08050119013
:103820001948016841F4804101600068022400F4F5
:103830008040119001200390102004900094069481
:103840000820CDE90750A820CDE9090404200B90F9
:103850006846FDF7FBFF08B172B6FEE70CA90F2022
:1038600081E831004FF4A0500F904FF48050109039
:1038700005210CA8FDF7DEFE002801D072B6FEE798
:1038800013B030BD4038024000700040024801686B
:1038900041F470010160704788ED00E00148FEF7D7
:1038A000FCB9000090020020F0B50268274B284DBB
:1038B000284E294F294C4FF0804C984209D0604542
:1038C00007D0A84205D0B04203D0B84201D0A042F0
:1038D00004D122F0700E4A6842EA0E0298421BD0D0
:1038E000604519D0A84217D0B04215D0B84213D0C5
:1038F000A04211D01A4DA8420ED01A4DA8420BD0AA
:10390000194DA84208D0194DA84205D0184DA8421B
:1039100002D0184DA84203D122F44075CA682A4348
:103920004D6922F080022A438D68C5620D68856268
:10393000984201D0A04201D109690163016841F0B8
:1039400004010160012141610260F0BD00000140FD
:103950000004004000080040000C0040000401404A
:103960000040014000440140004801400018004070
:10397000001C0040002000400148FEF77DBA000016
:103980004001002010B5806B0021C185FEF772FA5E
:1039900010BD70B5846B2068406994F84110C0F385
:1039A000C0100025212904D118B1E584204600F07B
:1039B0008EF82068406994F84210C0F380102229E4
:1039C00004D118B1E585204600F05AF8606C40F04B
:1039D000100060642046FEF74DFA70BD10B5014638
:1039E000806B096809684FF00002C9052ED4C285B2
:1039F00001680C3151E8003F23F4807341E8003442
:103A0000002CF5D10168143151E8003F23F0010387
:103A100041E80034002CF5D10168143151E8003F31
:103A200023F0400341E80034002CF5D1202180F838
:103A30004210016B012909D101680C3151E8003FA6
:103A400023F0100341E80034002CF5D14263016BF0
:103A5000012902D0FEF71EFC10BD818DFEF7E8F9AA
:103A600010BD10B5806B01214163016B012902D0AB
:103A7000FEF711FC10BD818D4908FEF7D9F910BD84
:103A800001680C3151E8002F22F4907241E80023C4
:103A9000002BF5D10168143151E8002F22F001020A
:103AA00041E80023002BF5D1016B012909D1016800
:103AB0000C3151E8002F22F0100241E80023002BC6
:103AC000F5D1202180F84210002101637047016880
:103AD0000C3151E8002F22F0C00241E80023002BF6
:103AE000F5D1202180F84110704708B590F84210B8
:103AF000222901D0022008BD82684FF480539A42E7
:103B000001D1016921B1816A9A421BD04AB10AE010
:103B10000268816A5268C2F308020A80816A891CBD
:103B200008E0026972B10268526802F07F020A700E
:103B3000816A491C8162C18D491E0904090CC18535
:103B400003D01BE002685268F1E70168CA6822F0FE
:103B50002002CA600168CA6822F48072CA600168E3
:103B60004A6922F001024A61202180F842100021B6
:103B70004163026B012A03D0FEF78CFB002008BDD5
:103B8000016301680C3151E8002F22F0100241E876
:103B90000023002BF5D101680A68D20602D50A6815
:103BA00049680091818DFEF743F9E7E770B5044657
:103BB00000680169E26821F4405111430161216903
:103BC000A068E26908436169114308432168CA6833
:103BD00049F20C639A430243CA6020684169A269B2
:103BE00021F440711143416131492068884202D07B
:103BF0003049884202D1FDF7E7FD01E0FDF7D4FD31
:103C0000E2690023192164253226B2F5004F62686B
:103C100028D0A0FB0101930F9200FCF785FB014621
:103C2000B0FBF5F06FF01802504301EB800006EB9B
:103C30000010B0FBF5F000F0F002B1FBF5F002EB84
:103C40000012B1FBF5F06FF01803584301EB800050
:103C500006EB0010B0FBF5F000F00F0021681044F7
:103C6000886070BDA0FB010192185B41FCF75CFB12
:103C70000146B0FBF5F00201B1FBF5F06FF018035F
:103C8000584301EB800006EBC000B0FBF5F000F0FC
:103C9000F80002EB4002B1FBF5F0584301EB800065
:103CA00006EBC000B0FBF5F000F00700D6E700001F
:103CB000001001400014014038B58162044682853D
:103CC000002013466064222284F84220E56B1F4ADC
:103CD000EA63E56B1E4A2A64E56B1E4AEA64E26BFE
:103CE00010650A462168E06B091DFDF79FFA30B1A7
:103CF00010206064202084F84200012038BD206834
:103D0000016840680090206948B120680C3050E894
:103D1000001F41F4807140E80012002AF5D12068AC
:103D2000143050E8001F41F0010140E80012002A61
:103D3000F5D12068143050E8001F41F0400140E800
:103D40000012002AF5D1002038BD0000DD3900083E
:103D5000633A0008933900082DE9F843984617465E
:103D60000D460446089E24E0701C22D0FDF798FB07
:103D7000A0EB0800B0421AD8CEB12068C16849074C
:103D800017D5802D15D0402D13D00168C9430907E0
:103D90000FD401680025406800902046FFF770FEB0
:103DA0000820606484F840500120BDE8F8830320B7
:103DB000FBE72068006835EA000004D00020B84224
:103DC000D2D00020F1E70120F9E700000148FEF71A
:103DD00053B8000088010020FEE7000092B001AC5B
:103DE00001AB0DAA09A905A8FFF76CFB0DAB09AA49
:103DF00005A90448009400F02CF80A2000F043FACA
:103E0000EEE700004001002070B592B014460500B6
:103E10001DD000291BD0002C19D06E46A2003046C0
:103E2000FCF7F9FA06EB8401002001F8010B0A23E4
:103E300001F8010B802001F8020B7F2001F8010C32
:103E40006846081A82B269462846FEF725FA12B07B
:103E500070BD10B590B091ED000A129C8DED000A76
:103E600091ED010A8DED010A91ED020A8DED020A34
:103E700091ED030A69468DED030A92ED000A8DED7E
:103E8000040A92ED010A8DED050A92ED020A8DED0C
:103E9000060A92ED030A10228DED070A93ED000A3F
:103EA0008DED080A93ED010A8DED090A93ED020AE2
:103EB0008DED0A0A93ED030A8DED0B0A94ED000ACD
:103EC0008DED0C0A94ED010A8DED0D0A94ED020AB8
:103ED0008DED0E0A94ED030A8DED0F0AFFF794FFA6
:103EE00010B010BDDFED090A094901E030EE600AAB
:103EF00010EE100A8842F9DC064900BF10EE100AE5
:103F0000884202D930EE200AF8E770470000B44337
:103F100000003443000034C34100080218BF0420ED
:103F20000A0E18BF40F001004FF07F4232EA010153
:103F300008BF40F00200012808BF052070470907AC
:103F4000090E002804DB00F1E02080F8001470471F
:103F500000F00F0000F1E02080F8141D7047000011
:103F600070B54FF068422DED048BF0EE408A18EEEC
:103F7000900AB0EE608A18EE101A02EB4003B3F11B
:103F8000654F3CBF02EB4102B2F1654F7DD200BFED
:103F9000C0F3C753C1F3C7529A1A1B2A09DD10F0A8
:103FA000004F14BF9FED830A9FED830ABDEC048B85
:103FB00070BD12F11A0F36DA11F0004F09D010F06F
:103FC000004F0CBF9FED7D0A9FED7D0ABDEC048B79
:103FD00070BD88EE889A19EE100AFFF79DFF04283D
:103FE00008BF00F033F918EE900AFFF795FF054679
:103FF00018EE100AFFF790FF044619EE100AFFF7BB
:104000008BFF042D18BF052D08D1042C18BF052CDB
:1040100004D1002804BF0220FCF7ABFAB0EE490A35
:10402000BDEC048B70BD4200B2EB410F3AD910F0E9
:10403000004F19BFDFED630A9FED630ADFED630AEE
:104040009FED630AB0EE481A0A46B1EE688A80F026
:104050000041F0EE418A10460A1A5200B2F1807F08
:1040600034D2484010F0004FDFED5A1A9FED5A2A23
:104070001DBFBEEE001A70EEE10A30EE420AB6EE47
:10408000001A08BF70EEA10A00E040E008BF30EE61
:10409000020AB0EE682A01EE482A08EE818AC2EED2
:1040A000081A15E011F0004F04BF9FED4C0AF0EE26
:1040B000400AD1D010F0004F19BFDFED490A9FED43
:1040C000490ADFED490A9FED490AC5E7C8EE881A9B
:1040D00021EEA11A9FED462ADFED462A41EE022A83
:1040E0009FED452A01EE222ADFED442A41EE022A05
:1040F0009FED432ABDEC048B01EE222A21EE811AAA
:1041000001EE020A30EE210A30EE200A70BD4FF0B7
:104110007F42B2EB400F28BFB2EB410F09D2F0EE65
:10412000480AB0EE680ABDEC048BBDE8704000F0B0
:104130008AB840EA01035B0008BF41F0FF410BD0A1
:10414000B2EB400F08BFB2EB410F08D120F0804026
:1041500008EE900A21F0804108EE101A18E7B2EB41
:10416000400F12BF5FEA410340F0FF4001F0004101
:104170003FF40EAFB2EB410F12BF5FEA400200F016
:10418000004041F0FF413FF403AF4A0092EA400390
:104190003FF5FEAE002AACBF9FED1A0A9FED1A0A4A
:1041A00068EE808A28EE008A18EE900A18EE101A3F
:1041B000EEE60000DB0FC9BFDB0FC93FDB0F494054
:1041C000DB0F49C00000C9BF22AAFDB90000C93FEA
:1041D00022AAFD390060ED3EC30ACE370000000080
:1041E000000049C022AA7DBA0000494022AA7D3AB7
:1041F0002DAD65BD8FB8D53D0FB511BE61C84C3E24
:10420000A8AAAABE0000804F0000802F10B52DED97
:10421000028BB1EEC08A18EE100A20F00040C0F107
:10422000FF40C00F0AD010EE100A20F00040C0F18D
:10423000FF40C00F04BF0120FCF79BF9B0EE480A15
:10424000BDEC028B10BD30EE200A70479FED020AD4
:1042500020EE000A7047000000000010FDF72EF964
:10426000FFF7CAFAFEF7CEFAFEF772FAFEF74EFA39
:10427000FEF764FBFEF746FB00F012F8FEF786FA45
:1042800000F020F8FEE710B5EFF3058111B16FF0F3
:10429000050403E0002408B100F03CFF204610BDF7
:1042A000EFF3058010B16FF0050070470448016816
:1042B00011B14FF0FF3070470121016000207047BD
:1042C000E800002010B5EFF3058010B16FF0050095
:1042D00010BD08480168012902D04FF0FF3010BD21
:1042E000054A002182F8141D0221016001F008F83E
:1042F000002010BDE80000200BE000E0F8B51D46EE
:104300006FF003026FF002064FF00004EFF3058335
:10431000A3B1F0B1E9B1E5B9002200926A4601F01B
:10432000CDFB012817D10098B0B10C494FF0805057
:104330000860BFF34F8FBFF36F8F0DE048B141B1FD
:104340002A4601F01FFB012806D025B16FF00104B9
:1043500002E0144600E034462046F8BD04ED00E0DB
:10436000F8B514464FF00005EFF3058212BB08B311
:1043700001B3A4B1D4E9023263B1502A1AD322693D
:10438000C2B1676900FB01F6B74213D3009501F093
:1043900023F907E072B9226962B9626952B9002251
:1043A00001F0F9F8050005D00CB1216800E000210A
:1043B00000F04EFE2846F8BDF8B51D466FF003022A
:1043C0006FF002064FF00004EFF30583ABB100B3CA
:1043D000F9B1F5B90022134600926A4601F024FAB9
:1043E000012818D10098B8B10C494FF080500860EE
:1043F000BFF34F8FBFF36F8F0EE050B149B1002371
:104400002A4601F061F9012806D025B16FF00104B8
:1044100002E0144600E034462046F8BD04ED00E01A
:10442000F8B50D460024211F4E1C002804D000BF03
:10443000EFF30582A2B10DB10C461BE000216A46E4
:10444000009101F03BFB012813D1009890B10A497B
:104450004FF080500860BFF34F8FBFF36F8F09E0BC
:10446000294601F079FB012804D015B16FF0010451
:1044700000E034462046F8BD04ED00E0F8B51446EF
:1044800003460E464FF00005EFF3058098BB93B34B
:104490009E423DD84CB1A0680028E06803D0502867
:1044A00036D3012002E008B132E00020012B05D014
:1044B00010B31846A26801F04EF820E040B1032086
:1044C0000090002211460120A36801F085F804E065
:1044D00003220021012001F05EF8050018D086B10A
:1044E00000231A46194601F0EFF8012809D02846A2
:1044F00000F0C2FD00250BE0184601F00FF80500A2
:1045000006D00CB1216800E00021284600F0A0FD93
:104510002846F8BD2DE9FF414FEA01034FF00005A1
:10452000EFF30581039549BB40B380271821002490
:104530004AB3166806B1344696691EB13146761EF6
:10454000382E02D21679F60703D0002004B0BDE859
:10455000F081566906B1B708D2F808C0BCF1000F67
:104560000DD0D5685C2D18D312693AB136B18DE8FB
:1045700006103A46214601F012FC03900DE0D66881
:104580005EB912694AB903AACDE90012BAB221464E
:1045900001F0D8FB012800D003950398D6E700006E
:1045A0002DE9F041134C0F460546E6682068001DD2
:1045B00000F050FC681C07D137B12168BDE8F0411C
:1045C0000D48091D00F096BC20683544B542456091
:1045D000216805D2A06BBDE8F041091D00F072BC56
:1045E000606B091D00F06EFCA06A854200D2A562D6
:1045F000BDE8F08198000020B00B00202DE9F041CB
:10460000054600F083FC2D4CA068401CA06020688B
:104610002B4F10B1606930B32BE02560A0680128F2
:1046200027D1002606EB860007EB800000F03CFC5B
:10463000761C382EF6D3234800F036FC214814307F
:1046400000F032FC1F48283000F02EFC1D483C30A2
:1046500000F02AFC1B48503000F026FC194860632B
:104660001430A06305E02068E96AC06A884200D877
:104670002560606A401C60626864E86A216988425B
:1046800000D9206100EB800007EB8000291D00F0BD
:1046900031FC00F05BFC606900280CD02068E96AFE
:1046A000C06A884207D208494FF080500860BFF3C3
:1046B0004F8FBFF36F8FBDE8F0810000980000209E
:1046C00000070020600B002004ED00E038B500F08A
:1046D0001DFC104C2068C8B90F4800F0E5FB0E48DF
:1046E000143000F0E1FB0C48E060143020610A4B0C
:1046F0000020F03B009003F1500210210A2000F04E
:104700006BFF206010B105A100F0A2FCBDE83840AD
:1047100000F01CBCD4000020B40C0020546D725179
:104720000000000030B4026C0B46002A0BD0C168B8
:104730001144C1608468A14201D30168C16030BCEA
:104740001846FBF768BE30BC70472DE9F041856B19
:10475000174604460026026C82B1C7B1E068FBF739
:104760005AFEE168206C091AE1602268914202D287
:10477000A168081AE060022F16D017E02068A8B9D7
:10478000A06801F0AFFB06460020A0600EE0606864
:10479000FBF741FE216C606808446060A1688842B4
:1047A00004D32068606001E005B16D1E6D1CA56337
:1047B0003046BDE8F08110B5044690F8590058B174
:1047C00001280CD002280FD0502080F31188BFF3AD
:1047D0004F8FBFF36F8FFEE7206B00F0CBFB2046BF
:1047E000BDE8104000F0C6BB10BD000010484FF4FB
:1047F0007051420706D0C01D0D4920F00700411A34
:10480000C1F570510B4A00230144C2E90003083985
:10481000183A21F0070111604B600B600B1AC0E9D8
:10482000001393604FF000405360506170470000E8
:104830009413002004010020144E154CA6F29C474E
:104840004FF08058DFF84C9012E000BF00F05EFBA4
:10485000F068C568281D00F0FDFAA068401EA06041
:104860006068401E606000F071FB2846FFF7A3FF00
:1048700060680028EAD138680128F9D9C9F80080B1
:10488000BFF34F8FBFF36F8FF2E700009C0B002048
:104890009800002004ED00E070B51D46049C51B165
:1048A000C4F80020C4E90F010121204600F0C8FE31
:1048B00084F84C5070BD2460F4E700002DE9F05FEF
:1048C0008846DDE90B941546834691009A460A9E78
:1048D000A522206BFBF716FE6FF00301206B01EBA6
:1048E0008501084420F00707780707D0502080F39F
:1048F0001188BFF34F8FBFF36F8FFEE70025B8F12C
:10490000000F0FD05FF00000221818F8001082F896
:10491000341018F8001011B1401C1028F4D384F89A
:10492000435001E084F83450382E00D33726E66235
:10493000C4E91365201D00F0C2FA04F1180000F06C
:10494000BEFA2461C6F138006462A061656584F82E
:10495000585052465946384600F066FA2060B9F180
:10496000000F01D0C9F80040BDE8F09F30B51149F3
:1049700000E011460A688242FBD34B685C1884420F
:1049800003D1406818444860084643681C189442A4
:1049900009D1084C183C2468A24209D052681A4434
:1049A00042600A6812680260814200D0086030BD2F
:1049B0000460F9E70401002070B5002441600B4D4C
:1049C0000061914206D8D11A8269914206D2011D36
:1049D000286907E09A4203D2994201D3012403E0F7
:1049E000011DE86800F06EFA204670BDD40000207A
:1049F00010B5044600F08AFAA06B28B15FF00004FD
:104A000000F0A4FA204610BD0124F9E730B589B0C2
:104A10003C4D6EE00498002806DADDE90601059AAF
:104A200090470498002864DB069C606910B1201D43
:104A300000F010FA03A800F0D7F8024604980A28FC
:104A400057D2DFE800F00505052D334A05052D3363
:104A500094F8280040F0010084F828000599A06926
:104A6000059B01442046FFF7A7FF68B3216A204653
:104A7000884794F8280040073BD50020009005980F
:104A8000A169002342181946204601F071FBD8B9EC
:104A9000502080F31188BFF34F8FBFF36F8FFEE775
:104AA00014F8280F20F00100207022E094F828006C
:104AB00040F0010084F828000598A06128B1811811
:104AC00013462046FFF778FF13E0502080F311884B
:104AD000BFF34F8FBFF36F8FFEE794F82800810775
:104AE00003D4204600F046FA03E020F0010084F8E9
:104AF0002800002204A9286800F044FF002889D17A
:104B000009B030BDD40000202DE9FC410F46054618
:104B100000F03AFC01A800F067F80446019818B1CB
:104B200001F094FABDE8FC81254EAFB13069006810
:104B3000D0B30027291B3A46306800F0C9FA01F0CB
:104B400085FA0028EED11F494FF080500860BFF36E
:104B50004F8FBFF36F8FE5E7A542EBD801F076FAF0
:104B6000F0682746C068C468201D00F073F994F807
:104B70002800410719D5A0692B4641193A4620461D
:104B8000FFF71AFFA8B100200346014600902A460D
:104B9000204601F0EDFA60B9502080F31188BFF390
:104BA0004F8FBFF36F8FFEE707E020F0010084F81E
:104BB0002800216A20468847B4E70127BAE70000A9
:104BC000D400002004ED00E00648416B096829B1DB
:104BD000416BC968C9684968816270474FF0FF310D
:104BE000FAE700009800002070B5054601F010F9C2
:104BF000064E0446B068844203D200F009F8012052
:104C000000E0002028602046B46070BDD400002081
:104C1000F8B5194D20E0C068C4680668201D00F092
:104C200019F9216A2046884794F82800400713D5CF
:104C3000A0693044B04206D924616060211DE86853
:104C400000F040F908E0002003460146009032469B
:104C5000204601F08DFA38B1E86801680029DAD100
:104C60002969C5E90310F8BD502080F31188BFF30E
:104C70004F8FBFF36F8FFEE7D400002008484068D5
:104C8000401C4FF0500080F3118804D0BFF34F8FC9
:104C9000BFF36F8FFEE7BFF34F8FBFF36F8FFEE75A
:104CA0000C010020074CE068016841B1C068002198
:104CB000D0F80000FFF728FFFFF7A8FEF3E7012177
:104CC0000020F7E7D40000202DE9F041044600F071
:104CD0001DF994F9455004F1240609E0606A48B1D1
:104CE000304601F07BF908B100F088FA6D1E6DB214
:104CF000002DF3DC4FF0FF3684F8456000F026F914
:104D000000F004F994F9445004F1100709E0206917
:104D100048B1384601F062F908B100F06FFA6D1E33
:104D20006DB2002DF3DC84F84460BDE8F04100F082
:104D30000DB900002DE9F0410546002700F024FBE5
:104D4000324E306808B9FFF751FD706905424ED107
:104D5000C5B3083568070ED005F00700C0F108009C
:104D60000544680707D0502080F31188BFF34F8FA8
:104D7000BFF36F8FFEE72DB37068854237D82348A5
:104D8000183001460C6801E020460C466168A942D3
:104D900002D221680029F7D131688C4227D00768F8
:104DA0002168016060680837411B10290FD960191C
:104DB000420708D0502080F31188BFF34F8FBFF314
:104DC0006F8FFEE713E041606560FFF7CFFD61681C
:104DD0007068401A7060B268904200D2B06070692A
:104DE00001430020C4E90001F068401CF06001F0BC
:104DF0002DF9780707D0502080F31188BFF34F8F2B
:104E0000BFF36F8FFEE73846BDE8F081EC0000206D
:104E10000449086818B10868026D521C02650868E8
:104E2000704700009800002010B5031F4FF08074F9
:104E30001C601B1F21F001011960191F044B0B603E
:104E400014390A60091F6FF0020244380A6010BD6D
:104E50007D4C0008D0E9013201699A60D0E9012354
:104E60005A604A68824201D182684A600022026127
:104E70000868401E0860086870470000034B036024
:104E800003F15C000860802010607047DC0C00209B
:104E9000044B036003F15C0008604FF48070106005
:104EA00070470000380F002000F108014FF0FF327A
:104EB000C0E90112C1600161002101607047002159
:104EC0000161704730B50B685A1C02D000F108022E
:104ED00002E0026904E02246546825689D42FAD93E
:104EE00053684B6099608A60516008610168491C91
:104EF000016030BD42684A6093688B609368596076
:104F0000916008610168491C01607047502080F37E
:104F10001188BFF34F8FBFF36F8F0A494868401C59
:104F2000486001280CD10848006810F0FF0F07D036
:104F3000502080F31188BFF34F8FBFF36F8FFEE7D0
:104F4000704700000C01002004ED00E008494868AB
:104F500028B1401E486001D180F31188704750206D
:104F600080F31188BFF34F8FBFF36F8FFEE7000010
:104F70000C01002070B500282AD0164DA0F10804BD
:104F800060686969084207D1502080F31188BFF337
:104F90004F8FBFF36F8FFEE722683AB1502080F346
:104FA0001188BFF34F8FBFF36F8FFEE788436060B8
:104FB00000F0EAF960686968084468602046FFF715
:104FC000D5FC2869401C2861BDE8704001F03EB85E
:104FD00070BD0000EC0000204FF0E02000210161D6
:104FE000816105494FF47A720968B1FBF2F1491EFB
:104FF00041610721016170479400002010B5FBF763
:105000006FF9114910280ED300F1E02090F8F00359
:105010000A78904207D2502080F31188BFF34F8F57
:10502000BFF36F8FFEE709480068896800F4E0600D
:10503000884207D9502080F31188BFF34F8FBFF308
:105040006F8FFEE710BD00000C0100200CED00E0AA
:1050500010B5084B002200BF53F832401CB1521C5F
:10506000082AF9D310BD43F8321003EBC20148609F
:1050700010BD0000C006002010B504000AD000F0EA
:1050800013F894F8460000280CD12046BDE81040E3
:10509000FFF770BF502080F31188BFF34F8FBFF32D
:1050A0006F8FFEE710BD0000084A002102EBC1032C
:1050B0005B68834206D1002042F8310002EBC10157
:1050C00048607047491C0829F0D37047C00600208B
:1050D00070B515460E460446FFF718FF94F94410C4
:1050E0000020491C01D184F8440094F94510491C62
:1050F00001D184F84500FFF729FFA06B28B92A46A3
:10510000314604F1240000F097F82046BDE87040D5
:10511000FFF7DABD10B5020014D00F48006B38B1AC
:10512000502080F31188BFF34F8FBFF36F8FFEE7DE
:1051300000F02AF900211046FFF732FA00F086FF4E
:10514000002807D105494FF080500860BFF34F8F0A
:10515000BFF36F8F10BD00009800002004ED00E049
:1051600070B50D4604000BD095B11E4A106BB8B156
:10517000502080F31188BFF34F8FBFF36F8FFEE78E
:10518000502080F31188BFF34F8FBFF36F8FFEE77E
:10519000502080F31188BFF34F8FBFF36F8FFEE76E
:1051A00000F0F2F8D26823685919934204D98B426F
:1051B0000AD9914202D807E08B42FAD9881A2160B5
:1051C0000021FFF7EDF900E0216000F03FFF00282B
:1051D00007D105494FF080500860BFF34F8FBFF3F0
:1051E0006F8F70BD9800002004ED00E002490A6A4C
:1051F0000260C968416070479800002001490120A1
:10520000C86170479800002010B50C4650B109499C
:1052100009681831FFF756FE2046BDE8104001210D
:10522000FFF7BEB9502080F31188BFF34F8FBFF353
:105230006F8FFEE79800002070B514460D4668B1E8
:105240000A4909681831FFF755FE0CB14FF0FF35D8
:1052500021462846BDE87040FFF7A2B9502080F3F0
:105260001188BFF34F8FBFF36F8FFEE798000020C8
:1052700070B504003ED0226DA2B1E06C884200D32C
:105280000146E06A884235D0012A33D11A4D2A6896
:1052900094420FD1502080F31188BFF34F8FBFF39A
:1052A0006F8FFEE7502080F31188BFF34F8FBFF35D
:1052B0006F8FFEE7E162A269002A02DBC1F13801CB
:1052C000A1610E4E00EB8000616906EB8000814217
:1052D00010D1201DFFF7BEFDE06A2969884200D980
:1052E000286100EB800006EB8000211DBDE87040C6
:1052F000FFF700BE70BD00009800002000070020EE
:1053000030B587B00024039405AA04A903A8049427
:10531000FFF7B4FDDDE903010094CDE9011000239E
:1053200015A11748059A00F03AFD164D0028E862CD
:105330001FD000F0EDFE012809D0401C19D15020EB
:1053400080F31188BFF34F8FBFF36F8FFEE75020BC
:1053500080F31188BFF34F8FBFF36F8F4FF0FF3093
:10536000A86201206861EC6007B0BDE8304000F041
:1053700045B807B030BD000049444C45000000006E
:1053800039480008980000200248016B491C01635D
:105390007047000098000020164810B5016B11B14D
:1053A0000121C16110BD0021C1610169124A01E002
:1053B000B9B1491E01EB810352F82330002BF7D01D
:1053C00001EB810302EB830202F1080453685B687E
:1053D0005360A34201D15B685360DA6802600161E7
:1053E00010BD502080F31188BFF34F8FBFF36F8F34
:1053F000FEE7000098000020000700201CB5374899
:105400000168374A914207D1502080F31188BFF3D9
:105410004F8FBFF36F8FFEE700683149491E884206
:1054200007D1502080F31188BFF34F8FBFF36F8FE8
:10543000FEE72C4908780190FF20087008788DF865
:1054400000009DF800009DF8002000F0F000904260
:1054500007D0502080F31188BFF34F8FBFF36F8FB9
:10546000FEE79DF80000204C00F05000207007205F
:10547000A06005E09DF8002052008DF80020401E3D
:105480009DF800201206F5D4A060032807D0502014
:1054900080F31188BFF34F8FBFF36F8FFEE74FF498
:1054A0004070A060019808700C482030016841F4F9
:1054B00070010160016841F070410160FFF78CFDEF
:1054C00000206060FAF7D4FE0848016841F04041CE
:1054D0000160FAF7B9FE00201CBD000000ED00E0FD
:1054E00071C20F4100E400E00C01002034EF00E045
:1054F00010B5502080F31188BFF34F8FBFF36F8F2B
:1055000000F08CFC18B104494FF080500860002076
:1055100080F3118810BD000004ED00E010B50C46CA
:1055200048B184420FD9502080F31188BFF34F8FC8
:10553000BFF36F8FFEE7502080F31188BFF34F8FCA
:10554000BFF36F8FFEE70222002100F024F800284D
:1055500000D0846310BD38B50C4648B184420FD9E1
:10556000502080F31188BFF34F8FBFF36F8FFEE79A
:10557000502080F31188BFF34F8FBFF36F8FFEE78A
:105580000221134600220091114600F025F8002860
:1055900000D0846338BDF8B517460E46050013D019
:1055A00005FB06F05030FFF7C5FB04000AD00020D1
:1055B00084F8460004F150023B46314628460094E8
:1055C000FFF76AF92046F8BD502080F31188BFF339
:1055D0004F8FBFF36F8FFEE738B5049D18B153B1FD
:1055E000CAB181B120E0502080F31188BFF34F8F02
:1055F000BFF36F8FFEE7502080F31188BFF34F8F0A
:10560000BFF36F8FFEE7502080F31188BFF34F8FF9
:10561000BFF36F8FFEE739B1502080F31188BFF3DD
:105620004F8FBFF36F8FFEE750241C46012384F891
:1056300046302B460094FFF72FF9204638BD000076
:1056400070B50D46040025D0FFF760FCD4E90F20AB
:10565000216802FB0011A1600021A1632168616043
:105660000A46D4E90F01401E00FB0121E1602146FA
:105670004FF0FF3001F8440F487004F110008DB175
:10568000FFF712FC04F12400FFF70EFCFFF75EFCAD
:10569000012070BD502080F31188BFF34F8FBFF3FE
:1056A0006F8FFEE721690029F0D000F097FC0028F9
:1056B000ECD004494FF080500860BFF34F8FBFF328
:1056C0006F8FE3E704ED00E02DE9FF4782B01D4650
:1056D0008A464FF00008040003D0BAF1000F08D04A
:1056E00011E0502080F31188BFF34F8FBFF36F8F0D
:1056F000FEE7206C38B1502080F31188BFF34F8F44
:10570000BFF36F8FFEE7022D0AD1E06B012807D0AF
:10571000502080F31188BFF34F8FBFF36F8FFEE7E8
:1057200000F068FB3F4F4FF000094FF0805648B93A
:10573000049838B1502080F31188BFF34F8FBFF326
:105740006F8FFEE7FFF7E2FBA06BE16B884207D3A8
:10575000022D05D00498D0B1B8F1000F1AD01EE088
:105760002A4651462046FEF7F0FF616A19B104F15E
:10577000240000F033FC20B13E60BFF34F8FBFF335
:105780006F8FFFF7E3FB012006B0BDE8F087FFF75E
:10579000DDFB22E06846FFF729FD4FF00108FFF727
:1057A000D5FBFFF7F1FDFFF7B1FB94F94400401C76
:1057B00001D184F8449094F94500401C01D184F84B
:1057C0004590FFF7C3FB04A9684600F081FA30B1A9
:1057D0002046FFF779FA00F039FC0020D4E7FFF704
:1057E00095FBA06BE16B884213D1FFF7AFFB04F18F
:1057F00010000499FFF708FD2046FFF765FA00F056
:1058000025FC00289ED13E60BFF34F8FBFF36F8F02
:1058100098E7FFF79BFB2046FFF756FA00F016FCCF
:1058200090E7000004ED00E02DE9F0471F469046A8
:105830008946040003D0B9F1000F08D011E05020D0
:1058400080F31188BFF34F8FBFF36F8FFEE7206C9B
:1058500038B1502080F31188BFF34F8FBFF36F8FA3
:10586000FEE7022F0AD1E06B012807D0502080F319
:105870001188BFF34F8FBFF36F8FFEE7FFF7BEFBBB
:105880005020EFF3118680F31188BFF34F8FBFF3E1
:105890006F8FA06BE16B884206D3022F04D00020EB
:1058A00086F31188BDE8F08794F94550A06B3A461D
:1058B00049462046FEF749FF681C04D06D1C84F859
:1058C00045500120ECE7606A0028FAD004F124007A
:1058D00000F084FB0028F4D0B8F1000FF1D00121D2
:1058E000C8F80010EDE770B50E46040009D0206C32
:1058F00078B1502080F31188BFF34F8FBFF36F8FC3
:10590000FEE7502080F31188BFF34F8FBFF36F8FF6
:10591000FEE7206848B9A06838B1502080F31188AC
:10592000BFF34F8FBFF36F8FFEE7FFF767FB50208A
:10593000EFF3118580F31188BFF34F8FBFF36F8FA3
:10594000A16BE06B884218D994F94500491CA1630A
:10595000411C04D0401C84F8450001200EE0606A20
:105960000028FAD004F1240000F038FB0028F4D01D
:10597000002EF2D001203060EFE7002085F311887F
:1059800070BD00002DE9F747002683B08A46040069
:1059900003D0BAF1000F08D011E0502080F3118835
:1059A000BFF34F8FBFF36F8FFEE7206C38B15020ED
:1059B00080F31188BFF34F8FBFF36F8FFEE700F0C6
:1059C00019FADFF8F4804FF000094FF0805748B91A
:1059D000059838B1502080F31188BFF34F8FBFF383
:1059E0006F8FFEE7FFF792FAA56BC5B151462046CF
:1059F000FEF798FE6D1EA563206950B104F11000FA
:105A000000F0ECFA28B1C8F80070BFF34F8FBFF375
:105A10006F8FFFF79BFA012006B0BDE8F08705986D
:105A200008B11EB106E0FFF791FA27E06846FFF7DC
:105A3000DDFB0126FFF78AFAFFF7A6FCFFF766FAFF
:105A400094F94400401C01D184F8449094F9450035
:105A5000401C01D184F84590FFF778FA05A9684603
:105A600000F036F9002820460AD0FFF72DF900F0A3
:105A7000EDFA2046FEF7BCFF0028B3D00020CBE7AC
:105A8000FEF7B6FF90B104F124000599FFF7BCFBC7
:105A90002046FFF719F900F0D9FA0028A2D1C8F87A
:105AA0000070BFF34F8FBFF36F8F9BE72046FFF768
:105AB0000BF900F0CBFA95E704ED00E02DE9F04793
:105AC00090468946040003D0B9F1000F08D011E0D8
:105AD000502080F31188BFF34F8FBFF36F8FFEE725
